:020000040800F2
:10000000780900207D1500084515000847150008EF
:10001000491500084B1500084D15000800000000A8
:100020000000000000000000000000004F15000864
:100030005115000800000000531500085515000870
:1000400095150008991500089D150008A1150008D0
:10005000A5150008A9150008AD150008B115000880
:10006000B5150008B9150008BD150008C115000830
:10007000C5150008C9150008CD150008D1150008E0
:10008000D5150008D9150008DD150008E115000890
:10009000E5150008E9150008ED150008F115000840
:1000A000F5150008F9150008FD15000801160008EF
:1000B00005160008091600080D160008111600089C
:1000C00015160008191600081D160008211600084C
:1000D00025160008291600082D16000831160008FC
:1000E00035160008391600083D160008F8B504005A
:1000F00025D004F13C05697821B9002028702046FC
:1001000000F0F8FA24216970206802685208520051
:1001100002602068016841F40041016020680268C3
:1001200022F40042026000F046FD01466068DFF8FC
:100130009C22904205D2DFF89832994205D20120E4
:10014000F2BDDFF890028142F9D32068DFF88832EF
:100150004668B1FBF3F3B60943EA861646602668A3
:10016000376A6068904206D34FF4967043434FF469
:100170007A70B3FBF0F35B1CBF0943EA8713336269
:10018000491E2368DE696768974206D27F0000F047
:1001900044F8042913D2042111E0A06820B907EB28
:1001A000470700F03AF805E01920474300F035F81A
:1001B00041F4804108050CBF012141F40041DFF802
:1001C0001C0206400E43DE6122681368E169206A62
:1001D00023F0C0030B43034313602268DFF80C02D3
:1001E000936821690340E0680B43034393602268EE
:1001F000D368A16960691B0A41EA03230343D36002
:100200002068016841F00101016000206860202140
:10021000697020630021A970F2BDB1FBF7F1491CA0
:10022000C1F30B0170472DE9F84304460E4615460D
:1002300000F0F1F804F13C078046787820287AD164
:10024000CDF8008000F0CCF800F0D7F8002872D18B
:10025000387801286FD000F07EF8212078701021C6
:1002600000F0A5F800F06AF8082918BF012904D0A9
:1002700081421CBF206B122801D100F0D3F8CDF8C9
:1002800000800022089D2B4600F0B5F830B100F048
:10029000C5F849D54FF40070786045E02069B0F5A5
:1002A000804F08BF06F0FE060CD0F109206801F06F
:1002B000060141F0F0010161434600F05CF80028BE
:1002C00032D1F6B22068DFF82811066143462A468B
:1002D00000F054F8002827D100F096F889690091C1
:1002E000009A208D002821D04246294600F0A3F82C
:1002F000A8B900F050F8401E208521684A695307CC
:1003000006D580B220B1606A02780A6100F039F83F
:1003100042462946204600F04EF90028E1D0786890
:10032000042801D100F011F8012005E000F00DF8DB
:1003300000F045F800E00220BDE8F2832085DFF8F8
:10034000C000E062E16A704772B62068016841F45B
:100350000071016070470121397020680268D1077F
:1003600003D4026842F0010202602068016821F4AF
:100370000061016070472A46DFF88810204600F0CF
:1003800090B8606A411C6162608D411E6185208D5C
:10039000411E21857047606A226801781161606A98
:1003A000411C6162608D411E6185208D7047B9706E
:1003B000002078606562A4F82A90608D7047202044
:1003C00078700021B970002038707047A186010054
:1003D00080841E0000093D0040420F000030FFFFF6
:1003E00019230122DFF8481070470000007CFFFF4E
:1003F0000200010000224FF00111204600F01DB85C
:100400000000FFFF08000100009021684A69009287
:1004100070470D469046994600F0FABB2068016887
:10042000CA0570472068016841F480710160704717
:1004300002001000414620469BE02DE9F8430F469C
:10044000089C0646904699463D0C3068E9B2012961
:100450000CBF4069806900F071F80CBF01200020DA
:1004600040451CD119F1010FEFD000F0D1FB001B6A
:10047000814502D3B9F1000FE7D13068E9B2012913
:100480000CBF4069806900F059F80CBF01200020C2
:100490004045DAD100F05FF80120BDE8F28300208A
:1004A000FBE72DE9F0410F460646144698463D0C01
:1004B000E8B201281CD130684169394089B2B8B22C
:1004C00081421CD03168486941051AD5306800F076
:1004D0003AF832685061002106F13C003163202275
:1004E00042708170426842F00402426001701DE077
:1004F00030688169394089B2B8B28142E2D10020C6
:1005000015E014F1010FD3D000F082FBA0EB08003E
:10051000844201D3002CCBD1E9B23068012908D143
:10052000406900F00BF8C6D000F015F80120BDE8D6
:10053000F081806900F002F8DAD0F5E7384080B247
:10054000B9B2884270470268014642F400720A60FC
:100550006FF48060704700203063202106F13C007A
:10056000002241708270416841F0200141600270B8
:10057000704770B505460C4616462868416908065E
:1005800017D4284600F046F818B914F1010FF4D03A
:1005900001E0012070BD00F03BFB801B844201D3D1
:1005A000002CEAD1286841690806E6D400F025F855
:1005B000EFE7002070BD70B505460C46164628686A
:1005C0004169480717D4284600F024F818B914F1F7
:1005D000010FF4D001E0012070BD00F019FB801B79
:1005E000844201D3002CEAD1286841694807E6D447
:1005F00000F003F8EFE7002070BD002105F13C009A
:100600002963202242708170426842F020024260D9
:100610000170704710B501684A6953050DD56FF434
:1006200080644C61002101633C3020234370817061
:10063000436843F004034360017012F4806018BF04
:100640000120C0B210BDF0B40246106895681318BE
:10065000506803EB5004C00748BF4D44A3422DD05F
:1006600013F8016B16F0030004BF13F8010BC01C54
:1006700031090F2907D113F8011B0F3103E013F8DB
:10068000017B05F8017B401EF9D10029E6D013F863
:10069000010BC6F38106032E08BF13F8016B00EBB4
:1006A0000620404228440026B71E8F421EBF10F885
:1006B000017B05F8017B761CF6D1CFE7F0BC02F197
:1006C0000C007047214A2248224980B5426000232D
:1006D0004FF4804201608360C360026143618361C3
:1006E000C3610362FFF702FD18B1BDE8014000F0ED
:1006F0003DBB01BD18B585B004461022002101A8FC
:1007000000F070FB2168134881421CD1124C216813
:1007100041F008012160C021206800F0080000902D
:10072000122200980D48019102920321049101A91F
:1007300000F062FB606840F400106060606800F4E4
:1007400000100090009806B010BD0000801A06004E
:100750001C0500200054004018100240000C01400D
:100760002DE9F843040016D02078DFF86064C10753
:1007700013D5706800F00C00042807D0706800F0F2
:100780000C00082841D17068C1033ED53068810350
:1007900003D56068002800F064812078DFF83C749D
:1007A000810719D5706810F00C0F07D0706800F041
:1007B0000C00082861D17068C1035ED430688107DD
:1007C00003D52069012840F04C813168606921F02F
:1007D000F80141EAC00131602178080740F18180C9
:1007E000A069DFF8FC13002800F0A68001220A604F
:1007F00000F00EFA0546706A810763D400F008FA2B
:10080000401B0228F7D903202EE16068B0F5803F35
:1008100004D1306840F48030306014E008B93068AA
:100820000AE0B0F5A02F306806D140F48020306097
:10083000316841F4803105E020F480303060316867
:1008400021F480213160606858B100F0E1F905467B
:1008500030688103A1D400F0DBF9401B6528F7D391
:10086000D1E700F0D5F905463068810395D500F051
:10087000CFF9401B6528F7D3C5E72069A8B101214E
:10088000396000F0C5F905463068810705D400F0ED
:10089000BFF9401B0228F7D9B5E73068616920F03D
:1008A000F80040EAC100306096E7386000F0B0F927
:1008B0000546316888078FD500F0AAF9401B022849
:1008C000F7D9A0E7DFF808030168C9084FF47A7286
:1008D000B1FBF2F2009200BF0098411E0028009187
:1008E000F9D1207841076ED5F0690025C10009D4FF
:1008F000F06940F08050F0610125F06900F080500F
:1009000000900098DFF8DC82D8F80000C10520D400
:10091000D8F8000040F48070C8F8000000F078F9C2
:100920008146D8F80000C10513D400F071F9A0EB9E
:1009300009006528F5D366E7086000F069F9054607
:10094000706A8107CDD500F063F9401B0228F7D902
:1009500059E7E068012808D008B9306A09E005289D
:10096000306A06D140F004003062306A40F0010085
:1009700005E0400840003062306A20F00400306238
:1009800041F28938E06860B100F042F98146306A8E
:10099000810713D400F03CF9A0EB09004045F6D3E1
:1009A00031E700F035F98146306A810706D500F05D
:1009B0002FF9A0EB09004045F6D324E71DB1F069FB
:1009C00020F08050F061E06900284CD0716801F09F
:1009D0000C01082938D002282AD100F047F8054632
:1009E0003068810105D500F013F9401B0228F7D9C2
:1009F00009E7206AB0F5803F05D17168A06821F44D
:100A00000031014371607268206A616A22F47412D5
:100A100002430A437260012000F029F8044630685E
:100A2000810120D400F0F4F8001B0228F7D9EAE68F
:100A300000F01CF804463068810114D500F0E8F895
:100A4000001B0228F7D9DEE601280AD07068226A66
:100A500000F48031914202BF00F47010616A884254
:100A600001D0012000E00020BDE8F28300203866BC
:100A700000F0CEB82DE9F041040088464ED05A4E21
:100A800000F077F802D200F06FF847D120684F4DA0
:100A9000810712D5400703D5696841F4E0616960B8
:100AA0002078010703D5686840F460506860696881
:100AB000A06821F0F001014369602178C80725D5BD
:100AC0006068012802D129688A0303E002282968A6
:100AD00002D18A0102D421E08A071FD569688908FA
:100AE00040EA8100686000F093F807466868616832
:100AF00000F00C00B0EB810F08D000F089F8C01BAB
:100B000041F289318842F1D303202BE0306800F0B4
:100B10000700804504D200F027F801D0012021E031
:100B20002078410705D56A68E06822F4E062024354
:100B30006A602178080706D56968206921F4605148
:100B400041EAC001696000F019F86A682749204B42
:100B5000C2F30312895CC84018601F48006800F0A7
:100B600033FA0020BDE8F0813168C90848EAC101C4
:100B70003160306800F00700404570471C49154857
:100B80000A6802F00C03082B00D0704710B500BFB4
:100B90001AA4C2F38343D203E35C08D5096858431F
:100BA0001AA3C1F340415A5CB0FBF2F010BD1846E5
:100BB0001049484310BD06480D4A006813680E49A5
:100BC000C3F30222FFE7895CC8407047001002406F
:100BD0001805002000127A0014050020000042428F
:100BE0008004424200700040002002406C15000862
:100BF0000410024000093D008C15000802030405A2
:100C0000060708090A0B0C0D0E0F10100102000058
:100C100001484068704700BF0C05002010B500F087
:100C2000F3F900F070F800F001FAFFF74BFD00F067
:100C3000E9FA00F035FA002100F062F84CA02E4CE1
:100C400000F08AFA012100F05BF800BF4BA000F031
:100C500083FA022100F054F84EA000F07DFA03213F
:100C600000F04EF8204600F077FA042100F048F832
:100C70004EA000F071FA052100F042F804F12C00BA
:100C800000F06AFA062100F03BF800BF4EA01B4CB2
:100C900000F062FA06215A2000F0EEF9002000F080
:100CA00067FA0621602000F0E7F9012000F060FA01
:100CB0000621662000F0E0F9022000F059FA062132
:100CC0006C2000F0D9F9032000F052FA06217220BE
:100CD00000F0D2F9042000F04BFA0721342000F094
:100CE000CBF92088411C2180052100F053FA012016
:100CF00000F0D6FAF1E700000814000872050020A1
:100D0000002000F0B9B900B58FB02822002105A855
:100D100000F068F814220021684600F063F84FF4F0
:100D200080310022069107920D91012005900990D3
:100D300002224FF4E0110C920E9105A8FFF710FD6E
:100D400008B100F013F8022101910F204FF48061E7
:100D50000090002203910292049202216846FFF75C
:100D600089FE08B100F002F80FB000BD72B6FEE7D0
:100D700048656C6C6F20576F726C64004932432079
:100D8000425553204F4C4544205353443133303661
:100D9000000000004C4344204F4C45442031323881
:100DA00078363420302C393600000000D0A4D0A58D
:100DB000D0A6D0A7D0A8D0A9D0AAD0ABD0ACD0AD67
:100DC000D0AED0AF00000000D184D185D186D187CC
:100DD000D188D189D18AD18BD18CD18DD18ED18F2F
:100DE0000000000010B5044610460A4601462046A1
:100DF00000F06AFA204610BD2DE9F8474FF0000ECA
:100E00000024644A644BDFF894814FF00F09824656
:100E10000DE017683840106007E0C2F804C04D6864
:100E2000ED03F6D51068074317600EF1010E0F6849
:100E300037FA0EF000F0AC80012000FA0EFC0CEA4C
:100E400007076745F1D1486838B301281AD002284E
:100E50001DD003282ED0112816D012281AD0504D9C
:100E6000A8421CBF4F4DA84217D04F4DA8421CBFEF
:100E70004E4DA84211D04E4DA8421CBF4D4DA84228
:100E80000BD018E0CC6816E0CC68241D13E0CC68C9
:100E9000083410E0CC680C340DE0886808B90424EC
:100EA00009E0012819BF0824CAF814C00824CAF8A8
:100EB00010C000E00024B7F5807F03D250464FEA0F
:100EC0008E0C05E0AEF108050AF104004FEA850C2E
:100ED000056809FA0CF6B54304FA0CF646EA050C67
:100EE000C0F800C04868C0009FD5D8F8000040F0A6
:100EF0000100C8F80000D8F8005005F00105009581
:100F00004FEA8E0500984FEA9E0053F8206005F0E6
:100F10000C0C09FA0CF526EA0505274EB24508BF68
:100F200000260ED0254EB24508BF012609D0244E1A
:100F3000B24508BF022604D0224EB2450CBF03269C
:100F4000042606FA0CF646EA050C43F820C0F843DE
:100F50004D68D2F808C0ED024CBF47EA0C0C00EA1D
:100F60000C0CC2F808C04D68D2F80CC0AD024CBFE2
:100F700047EA0C0C00EA0C0CC2F80CC04D68D2F821
:100F800004C0AD034CBF47EA0C0C00EA0C0C44E76C
:100F9000BDE8F1870004014008000140181002403C
:100FA000000011100000121000002110000022109B
:100FB000000031100000321000080140000C014018
:100FC000001001400014014038B50D4D0D4B2A783A
:100FD00004464FF47A711868B1FBF2F2B0FBF2F0FC
:100FE00000F0DDF950B9102C08D2002221464FF054
:100FF000FF3000F0B7F9AC60002032BD012032BDF7
:101000000C0500201805002080B50748016841F054
:1010100010010160032000F098F90F20FFF7D4FFC2
:1010200000F0DAF9002002BD002002400A4881B039
:10103000016841F020010160026802F02002009284
:101040000099026842F008020260006800F008009F
:101050000090009801B070471810024080B53B4ADC
:101060000021FFE764231170507000937821022360
:101070003748FFF7D8F801BD10B50446354804726B
:101080004172A1F15000C0B2FFF7E8FF04F00F0079
:10109000FFF7E4FF240944F01000BDE81040DDE74D
:1010A00070B500210020FFF7E7FF002500264FF470
:1010B0008064202000F012F86D1CA8B2812805DBA6
:1010C000761CF1B20020FFF7D7FF0025641EF0D197
:1010D0002048052100220172427270BD38B5D02827
:1010E0001C4C02D10120A07231BDD12802D10120B7
:1010F000E07231BDA17A012904BF0022A272E17A17
:10110000012902D10022E2724030402121700021E9
:1011100000EB80028A1822446518137B6B70491C0F
:101120000529F5DB0020A0714FF47A75009507239F
:10113000224678210648FFF776F8207A0830C1B2B7
:101140008129A8BF0520207231BD00007005002054
:101150001C0500200000002010B5044603E014F830
:10116000010BFFF7BBFF20780028F8D110BD00006D
:1011700004280ED8DFE800F0030507090B00F02073
:1011800006E0F12004E0F22002E0F32000E0F42089
:10119000A4E7704738B50A25491E0429044627D814
:1011A000DFE801F01C19160A030042F21071B4FBCB
:1011B000F1F03030FFF792FF4FF47A71B4FBF1F0A9
:1011C0000A22B0FBF2F205FB12003030FFF786FF77
:1011D000642000F00EF80A2000F00BF80A20B4FB9F
:1011E000F0F005FB104404F13000BDE8324075E733
:1011F00031BDB4FBF0F00A21B0FBF1F105FB1100A9
:1012000030306BE780B5AE20FFF728FFD520FFF721
:1012100025FF8020FFF722FFA820FFF71FFF3F20B8
:10122000FFF71CFFD320FFF719FF0020FFF716FF81
:101230004020FFF713FF8D20FFF710FF1420FFF76A
:101240000DFF2020FFF70AFF0020FFF707FFA12076
:10125000FFF704FFC820FFF701FFDA20FFF7FEFECB
:101260001220FFF7FBFE8120FFF7F8FECF20FFF7EB
:10127000F5FED920FFF7F2FEF120FFF7EFFEDB20AD
:10128000FFF7ECFE4020FFF7E9FEA420FFF7E6FEA3
:10129000A620FFF7E3FEBDE80240AF20DEE6000037
:1012A00038B50446FFF7B4FC14F1010F054602D02F
:1012B000044908780419FFF7ABFC401BA042FAD39D
:1012C00031BD00BF0C05002062F30F2262F31F4204
:1012D000401810F0030308D0C91A1FD3DB0748BF1A
:1012E00000F8012D28BF20F8022D130030B4144659
:1012F0001546103928BF20E93C00FAD8490728BF15
:1013000020E90C0048BF40F8042D890028BF20F8D0
:10131000022D48BF00F8012D30BC7047C91818BF16
:1013200000F8012DCB0728BF00F8012D7047000001
:101330000901020002D4224881547047214B02F077
:101340000F021A4402F8041C70471F4B19684FF62D
:10135000FF020002114000F4E06008431B4908430B
:101360001860704770B5184B1C68C4F30223012441
:10137000C3F10705052D2EBF0F2504FA05F56D1ED7
:101380001E1D072E34BF0023DB1E2940994004FA9E
:1013900003F3BDE870405B1E1A401143C8E7401ECE
:1013A000B0F1807F01D3012070470949094A4860A4
:1013B0000023F02010708B60072008600020704729
:1013C00000E400E018ED00E00CED00E00000FA059C
:1013D00010E000E023ED00E00A4881B0016841F030
:1013E00001010160026802F0010200920099426866
:1013F00042F080524260406800F0805000900098B7
:1014000001B0704718100240D090D091D092D09384
:10141000D094D095D081D096D097D098D099D09AAA
:10142000D09BD09CD09DD09ED09FD0A0D0A1D0A248
:10143000D0A30000D0B0D0B1D0B2D0B3D0B4D0B52A
:10144000D191D0B6D0B7D0B8D0B9D0BAD0BBD0BC7B
:10145000D0BDD0BED0BFD180D181D182D183000098
:1014600030B4002512E050F8042BD30744BF4A449F
:10147000521E091F042942F8045BFAD213468C0756
:1014800044BF15809B1CC90748BF1D7050F8041B42
:101490000029E8D130BC704710B5074979441831AC
:1014A000064C7C44163404E00A68081D1144884741
:1014B0000146A142F8D110BD080000002400000040
:1014C000A1FFFFFF580000001C05002000000000E5
:1014D00077F1FFFF6C010000BE0600000000002055
:1014E00000F00DF8002801D0FFF7D6FFAFF3008021
:1014F0000020AFF30080FFF791FB00F002F801201D
:10150000704700F001B800000746384600F002F8C6
:10151000FBE7000080B5AFF30080024A11001820FD
:10152000ABBEFBE7260002000548014603B468464F
:1015300080F30988AFF30080AFF30080FFF7D0FF9E
:10154000A5EDF5FEFEE7FEE7FEE7FEE7FEE77047E6
:101550007047704700F000B802494A68087882185E
:101560004A6070470C050020704700000000000032
:101570000000000001020304060708090148804733
:1015800001480047691500082915000800000000FF
:1015900001020304FFF7FEBFFFF7FEBFFFF7FEBF28
:1015A000FFF7FEBFFFF7FEBFFFF7FEBFFFF7FEBF6F
:1015B000FFF7FEBFFFF7FEBFFFF7FEBFFFF7FEBF5F
:1015C000FFF7FEBFFFF7FEBFFFF7FEBFFFF7FEBF4F
:1015D000FFF7FEBFFFF7FEBFFFF7FEBFFFF7FEBF3F
:1015E000FFF7FEBFFFF7FEBFFFF7FEBFFFF7FEBF2F
:1015F000FFF7FEBFFFF7FEBFFFF7FEBFFFF7FEBF1F
:10160000FFF7FEBFFFF7FEBFFFF7FEBFFFF7FEBF0E
:10161000FFF7FEBFFFF7FEBFFFF7FEBFFFF7FEBFFE
:10162000FFF7FEBFFFF7FEBFFFF7FEBFFFF7FEBFEE
:10163000FFF7FEBFFFF7FEBFFFF7FEBFFFF7FEBFDE
:10164000F2010001125F1412070213147F0210103E
:10165000242A7F2A12231308646236495522500037
:1016600005031E100D1C2241000041221C0014081D
:101670003E081408052005080050300000080150FD
:1016800008006060000020100804025CF18850101F
:10169000333E5149453E00427F4000426151494638
:1016A0002141454B311814127F1027454545393CDF
:1016B0004A49493001710905033649494936064905
:1016C00049291E0036365F12560513081464221489
:1016D00001116920101408020151090632497941AB
:1016E0003E7E1111117E7F3210043E414141227F26
:1016F00004221C0F100A417F090909013E41494992
:101700007A7F88200A7F00417F41002040413F01CD
:101710007F4C137F400120087F020C027F7F04086A
:10172000107F3C223E32100A063E4151215E7F0965
:10173000192946464610053101017F01013F2D1050
:10174000133F1F2040201F3F4038403F63140814C0
:10175000630708700807C7100145430074130002AF
:1017600046200A200041417F00040201020440019A
:10177000120009100E0020545454787F4844443815
:101780003844444420051001487F381410121808CA
:101790007E0901020C5252523E7F08040478004434
:1017A0007D40A01405443D007F1028444F1527209C
:1017B000047C041804787C1E213C17387C0020042B
:1017C00008081414187C1413080846100A20043F53
:1017D0004440203C4040207C1CA010061C3C403073
:1017E000403C442842140B0C5050503C4464544C30
:1017F000440008369F13007F04340C413608001063
:10180000080810087846414678E0252CF63549E06E
:1018100020037C1211127C503631901539300501AD
:1018200001603F213F606412635E33634119112DF3
:1018300010027F7F100905258B17403F65458B25DA
:10184000A9358B127E3C567E9011013586201347B8
:101850004848483F1C227F221C41361C36411F202D
:1018600020207F0732137F400221051007FF013F30
:101870004848307F4878ED210A12416F155E140CFC
:101880003E413E462919097F78242424787C36225B
:1018900024051001287C04012003603C243C600FD7
:1018A00020045444287C28440913287CCE10027C50
:1018B0007C20140516104A1402403C0404722114C2
:1018C00034021010107C8B12783C367890210F1265
:1018D0004421240104044C721210463610811595DF
:1018E000200140FC0C32137C40022105200AFC043C
:1018F0007C5050207C5020007C000A12447030093B
:10190000387C10384438485434147CF0318C292108
:10191000235427F038031E217F211E7180033F20AE
:10192000203F60F030053F203F207F017FF01230E4
:10193000F0210AC222F0397B10033C4A4A4A305552
:10194000432800F038023824247C8070056C107C19
:10195000106C0044F01001211209E1197BF30140E1
:1019600038F0213C14057C1860701C07637C400E25
:1019700063204E404E20402E202E407225252552B9
:10198000F0800220203C60F0D0033C203C207CF022
:0F199000C228F05E016104221008000124F40057
:0400000508001529B1
:00000001FF
